:020000040800F2
:10000000B0CF002031030008C7430008C9380008FA
:10001000C5430008BD09000859650008000000003C
:100020000000000000000000000000007102000855
:10003000A50B000800000000CD020008734700086F
:100040004B0300084B0300084B0300084B03000858
:100050004B0300084B030008A70B00084B030008E4
:100060004B030008AD0B0008B30B00084B0300085E
:100070004B0300084B0300084B0300084B03000828
:100080004B0300084B0300084B0300084B03000818
:10009000C10900084B0300084B030008B90B000816
:1000A0004B0300084B0300084B0300084B030008F8
:1000B0004B0300084B0300084B0300084B030008E8
:1000C0004B0300084B0300084B0300084B030008D8
:1000D0004B0300084B0300084B030008FD4D0008CC
:1000E0004B0300084B0300084B0300084B030008B8
:1000F0004B0300084B0300084B030008AD0A00083F
:100100004B0300084B0300084B0300084B03000897
:100110004B0300084B0300084B0300084B03000887
:100120004B030008050B00084B0300084B030008B5
:100130004B0300084B0300084B0300084B03000867
:10014000CD0900084B0300084B030008C943000811
:100150004B030008110B00081D0B00084B0300089F
:100160004B0300084B0300084B0300084B03000837
:100170004B0300084B0300084B030008000000007D
:100180004B0300084B03000800F002F800F060F891
:100190000AA090E8000C82448344AAF10107DA45E2
:1001A00001D100F055F8AFF2090EBAE80F0013F0D4
:1001B000010F18BFFB1A43F0010318471087000016
:1001C000308700000A444FF0000C10F8013B13F098
:1001D000070408BF10F8014B1D1108BF10F8015BA0
:1001E000641E05D010F8016B641E01F8016BF9D193
:1001F00013F0080F1EBF10F8014BAD1C0C1B09D1EA
:100200006D1E58BF01F801CBFAD505E014F8016B5B
:1002100001F8016B6D1EF9D59142D6D370470000ED
:100220000023002400250026103A28BF78C1FBD8FF
:10023000520728BF30C148BF0B6070471FB508F098
:10024000E9FA9DE8030000F025FA1FBD10B510BDC6
:1002500000F09EFA1146FFF7F1FF06F05BFA00F09E
:10026000BCFA03B4FFF7F2FF03BC00F0EDFA0000A4
:100270002C4B19680868B0E8F04F80F30988BFF389
:100280006F8F4FF0000080F311887047000000006E
:1002900008480068006880F308884FF0000080F389
:1002A000148862B661B6BFF34F8FBFF36F8F00DF64
:1002B00000BF00BF08ED00E0DFF80C00016841F46A
:1002C00070010160704700BF88ED00E0EFF3098026
:1002D000BFF36F8F134B1A681EF0100F08BF20ED8D
:1002E000108A20E9F04F106009B44FF0500080F3FD
:1002F0001188BFF34F8FBFF36F8F07F04BFD4FF0A7
:10030000000080F3118809BC19680868B0E8F04F54
:100310001EF0100F08BFB0EC108A80F30988BFF3FD
:100320006F8F704788000020EFF305807047000052
:100330000948804709480047FEE7FEE7FEE7FEE779
:10034000FEE7FEE7FEE7FEE7FEE7FEE704480549B5
:10035000054A064B7047000029480008890100083B
:10036000B08F0020B0CF0020B0AF0020B0AF002091
:1003700070B5064600F072F9056806F10B0020F032
:100380000704B4429CBF002070BD2B466A68BAB116
:100390001068A04210D304F1080188423CBF5068A5
:1003A000586007D35168101941601168091B01603A
:1003B00058601460101D70BD13465268002AE7D1C2
:1003C0002146284600F052F90028DED170BD70B5F4
:1003D0000446051F00F042F90068002C14BF446871
:1003E00070BD002C18BFAC423CBF20466468F8D3F7
:1003F00001680A18AA4218BF456003D12A68054659
:100400001144016028684119A1421CBF6C6070BD95
:100410006168696021680844286070BD53EA020C75
:1004200000F069802DE9F04B4FF00006002B1FBF54
:10043000B3FA83F503FA05F424FA05F65E4012BF19
:100440001643B2FA82F502FA05F4C5F120051EBF83
:1004500022FA05FC44EA0C04203556EA044C4FEA23
:10046000144418BF641C4FF000084FF0000990427C
:1004700071EB030C39D3002919BFB1FA81F701FAE6
:1004800007F6B0FA80F700FA07F6C7F120071EBF9B
:1004900020FA07FC46EA0C062037B6FBF4FCA7EB73
:1004A0000507103F07F01F0BCBF120060CFA0BFBE2
:1004B0002CFA06F644BFB3460026202FA4BF5E46A2
:1004C0004FF0000B5BEA060C08BF4FF0010B19EB75
:1004D0000B09ABFB027C48EB0608C01B06FB02CCF9
:1004E0000BFB03CC71EB0C01C1E70B460246414606
:1004F0004846BDE8F08B13B54FF000004FF0000107
:10050000AFF30080BDE81C407047032A40F2308002
:1005100010F0030C00F0158011F8013BBCF1020F44
:10052000624498BF11F801CB00F8013B38BF11F8C5
:10053000013BA2F1040298BF00F801CB38BF00F8DC
:10054000013B11F0030300F02580083AC0F0088059
:1005500051F8043B083A51F804CBA0E80810F5E73D
:10056000121D5CBF51F8043B40F8043BAFF3008020
:10057000D20724BF11F8013B11F801CB48BF11F895
:10058000012B24BF00F8013B00F801CB48BF00F865
:10059000012B704710B5203AC0F00B80B1E818501D
:1005A000203AA0E81850B1E81850A0E81850BFF45D
:1005B000F5AF5FEA027C24BFB1E81850A0E81850FC
:1005C00044BF18C918C0BDE810405FEA827C24BF50
:1005D00051F8043B40F8043B08BF7047D20728BFDE
:1005E00031F8023B48BF11F8012B28BF20F8023B2D
:1005F00048BF00F8012B704702F0FF0343EA0322D3
:1006000042EA024200F07EB84FF0000200B5134605
:1006100094469646203922BFA0E80C50A0E80C5022
:10062000B1F12001BFF4F7AF090728BFA0E80C50D3
:1006300048BF0CC05DF804EB890028BF40F8042BCC
:1006400008BF704748BF20F8022B11F0804F18BF39
:1006500000F8012B7047704770477047004870479B
:10066000548F0020704770477047704738B5044674
:100670000A4600206946AFF30080002808BF38BD55
:1006800002460099204600F061F8012038BD0120A3
:1006900000F076B8F8B5AFF30080054600200C46B0
:1006A000102000BF0646A819A0420DD9324669465F
:1006B0000020AFF30080070008BF00F061F8009849
:1006C000A04218BF0546C419FFF7C8FF05600746DA
:1006D000F01D20F007004619284600F00AF8B44241
:1006E00008BFF8BDA21B31463868BDE8F84000F0ED
:1006F0002DB800210160C0E901107047102070473B
:100700004FF000020429C0F0128010F0030C3FF4F7
:100710007DAFCCF1040CBCF1020F18BF00F8012B27
:10072000A8BF20F8022BA1EB0C01FFF76FBF5FEA17
:10073000C17C24BF00F8012B00F8012B48BF00F852
:10074000012B7047004870474C8F002003464068DB
:100750008C46002818BF88423CBF03464068F8D347
:1007600018681844884207D00CF1030020F00700F5
:10077000001D411A521A0146081D0A60FFF727BEE4
:1007800010B500F039F8BDE8104000F02FB8704700
:100790007546FFF7D7FFAE4605006946534620F081
:1007A0000700854618B020B5FFF7D0FDBDE8204012
:1007B0004FF000064FF000074FF000084FF0000B1D
:1007C00021F00701AC46ACE8C009ACE8C009ACE8D0
:1007D000C009ACE8C0098D46704710B50446AFF3B8
:1007E00000802046BDE81040FFF73BBD002801D047
:1007F00000F02AB87047000010B5012805D000218C
:1008000003A000F027F8012010BD09A1F8E70000BF
:1008100053494752544D454D3A204F7574206F66E9
:100820002068656170206D656D6F72790000000051
:100830003A2048656170206D656D6F727920636F35
:10084000727275707465640001491820ABBEFEE7D2
:100850002600020070B505460C460A2000E06D1C1B
:1008600000F011F835B128780028F8D102E0641CB6
:1008700000F009F814B120780028F8D1BDE87040E4
:100880000A20AFF3008008B569468DF80000032008
:10089000ABBE08BD464910B54A6822F440324A60F2
:1008A0004A6843681A434A6001684A6822F48072C1
:1008B0004A6001684A68036942EA03224A600168A3
:1008C0004A6822F040724A6001684A6883681A43A5
:1008D0004A6001688A6822F400628A6001688A6856
:1008E000C3681A438A60816A6FF07062D1420168FE
:1008F0008A6822F070628A6001688A680CD0836A14
:100900001A438A6001688A6822F040528A6001684E
:100910008A68C36A1A4301E022F040528A60016883
:100920008A6822F002028A6001688A68037E42EACD
:1009300043028A6090F82010002901684A680FD0AD
:1009400042F400624A6001684A6822F460424A60E8
:1009500001684A68174C436A04EB43331A4301E0C9
:1009600022F400624A600168CA6A22F47002CA6214
:100970000168CA6A838B104C04EB03531A43CA62A2
:1009800001688A6822F400728A6001688A6890F8B7
:10099000303042EA43228A6001688A6822F4806229
:1009A0008A6001688A68406942EA8020886010BDD8
:1009B0000023014000E0FFFF0000F0FFFEE7000021
:1009C000014800F086BB0000A4090020014800F0A7
:1009D00080BB0000CC09002038B50E4C4FF40075E8
:1009E00025600025A560E560082525610A4C050AFB
:1009F00025706070080AA070E170100A20716271A1
:100A0000180AA071E3716B4622460249034800F0C0
:100A1000F7F938BD0C8C002019020020A409002031
:100A200038B50E4C40F2FF1525600025A560E56045
:100A3000082525610A4C050A25706070080AA07017
:100A4000E170100A20716271180AA071E3716B469F
:100A500022460249034800F0D3F938BD248C002017
:100A600021020020A40900200020704700207047C8
:100A700010B500220449054804F016FB0449034858
:100A800004F00CFB002010BDFC20002058100020BA
:100A9000FC18002010B50146034804F0FFFA024894
:100AA00004F0E0FA002010BD58100020124A10B5E2
:100AB000506800011ED5114B114C586B01684FF066
:100AC0000060A14202D90E494C3905E00A4CB83405
:100AD000A14203D90A495039086006E0064C58344F
:100AE000A14201D9D06000E090601868016841F42B
:100AF0000071016010BD000000600240480A002043
:100B000058640240014800F07BBD0000980F0020AF
:100B1000014800F075BD0000F80F0020014800F00A
:100B20006FBD0000D80E002001681823CAB2103A29
:100B3000B2FBF3F2054B6FF30901032A9B5CC3651B
:100B400000D9091D816508467047000074880008B7
:100B500010B5014600208B698A6A4FF0C07453B10A
:100B6000B3F5005F15D072B1012A0CD0022A0AD069
:100B7000032A09D104E01AB1012A06D0022A03D1BE
:100B8000C96AC90100D5012010BDC96AA142FAD0C5
:100B900010BD002AF7D0012AF2D0022AF3D0032A8E
:100BA000F3D010BD7047012000F078BE082000F09F
:100BB00075BE102000F072BE202000F06FBE70479E
:100BC00078B50024009490F83C20012A19D0012225
:100BD00080F83C200A6807230568092A13D9EE68C3
:100BE0000A3A02EB420293409E43EE600B788A6819
:100BF0000A3B03EB43039A400368DD682A43DA604B
:100C000010E0022078BD2E6902EB420293409E4321
:100C10002E610B788A6803EB43039A4003681D69D1
:100C20002A431A614A681F23072A13D205686E6B8C
:100C3000521E02EB820293409E436E630B790A8838
:100C40005B1E92B203EB83039A4003685D6B2A43F9
:100C50005A6327E005680D2A12D22E6BD21F02EBD1
:100C6000820293409E432E630B790A88DB1F92B267
:100C700003EB83039A4003681D6B2A431A6311E058
:100C8000EE6A0D3A02EB820293409E43EE620B79CC
:100C90000A880D3B92B203EB83039A400368DD6A36
:100CA0002A43DA62164B0568144A9D4206D10D6844
:100CB000122D03D1556845F48005556005689D42A5
:100CC00018D10B68102B01D0112B13D1536843F4AA
:100CD00000035360096810290CD10A490A4A0968BF
:100CE000B1FBF2F101EB8101490000E0491E0091E6
:100CF0000029FBD180F83C40002078BD0023014052
:100D0000002001408400002040420F0070B5040024
:100D10004FF0000503D0206C002610B107E0012041
:100D200070BD204600F01CF8666484F83C60206CBE
:100D3000C00610D4206C20F4885040F002002064DB
:100D40002046FFF7A7FD6664206C20F0020040F00B
:100D50000100206400E0012584F83C60284670BD55
:100D600010B586B0044614216846FFF74DFC174BBA
:100D70002268002116489A4209D1016841F4807125
:100D80000160006800F48070059006B010BD114B42
:100D90009A42FAD1026842F480620260006800F46C
:100DA000806005900A481438026842F02002026010
:100DB000006800F020000590181500900320CDE990
:100DC00001016946044800F075FDDEE7002001409E
:100DD00044380240002201400014024090F82020D4
:100DE000012A07D0022A05D0416A41F480214162DC
:100DF00001207047006842690A4342610020704741
:100E0000F0B590F820500468A468012D05D0022D9B
:100E100003D0416A41F480215DE014F0406F01D1BC
:100E2000E50055D5C4F30164022C03D9416A41F4AD
:100E3000000150E00125A5401D608D684FF4C0738E
:100E40009DB1CE6835434E6845EAC605066803EB9A
:100E50000417F5514FF4C275076805EB04150E69C8
:100E60007E51097D012905D009E00E88CD6845EA4B
:100E70004655EBE701684E5946F480764E5111799C
:100E8000D579567941EA056195792D0445EA06251B
:100E900029434FF4C676056806EB0416A95111786C
:100EA000D57841EA0561957852782D0445EA022209
:100EB00011434FF4C475026805EB041551510068E5
:100EC00003EB0411425842F0010242500020F0BDF1
:100ED000416A41F4001141620120F0BD10B590F863
:100EE0002020012A07D0022A05D0416A41F480213E
:100EF0004162012010BD3B48D0F8002242F00102BF
:100F0000C0F80022D0F8002222F47C52C0F800225F
:100F1000D0F800224B6A42EA0322C0F800220A7D80
:100F200002F01F0301229A40D0F81C329343C0F80C
:100F30001C32CB69B3B9D0F80C329343C0F80C32F1
:100F40008C894B6864F31F434C6900EBC404C4F8FC
:100F500040320C890B6864F31F434C6900EBC404F6
:100F6000C4F84432CB69012B16D1D0F80C321343AC
:100F7000C0F80C320C884B6864F31F434C6900EBDB
:100F8000C404C4F840320C89CB6864F31F434C6935
:100F900000EBC404C4F844328B69002BD0F804324F
:100FA0000ED01343C0F804320B69002BD0F8143272
:100FB00008D01343C0F81432096A012904D008E0AC
:100FC0009343EFE79343F5E7D0F81C121143C0F8C1
:100FD0001C12D0F8001221F00101C0F8001200200C
:100FE00010BD000000640040704730B590F820400C
:100FF000012C05D0022C03D0416A41F480215DE030
:101000000468002955D02469A40754D04FF4D8743B
:10101000056804EB01142D5915F004059560056869
:101020002D594ED0ED08556005682C59C4F3400485
:10103000D4604FF4DA74056804EB01142D5905F0FF
:101040000F05156105682D59C5F3072595610568DC
:101050002C59240C54614FF4DC72046802EB011229
:10106000A4581C700468A458240A5C700468A4582E
:10107000240C9C700468A258120EDA704FF4DE72D1
:10108000046802EB0112A4581C710468A458240AD5
:101090005C710468A458240C9C710468A258120E58
:1010A000DA71006881B1016941F02001016100201D
:1010B00030BDE468A8E7416A41F4001141620120B3
:1010C00030BD6D0D1560AFE7C16841F02001C16012
:1010D000EDE72DE9F05F0546006800244669D0F889
:1010E00004908768D0F80CB0D0F810A0D0F8188021
:1010F000F10748D0F90714D001218160B80703D562
:10110000284600F050FA0CE0780702D54FF400644E
:1011100007E0380702D54FF4805402E0284600F07B
:1011200041FAF80516D529684FF480708860B80533
:1011300003D5284600F039FA0CE0780502D544F4CE
:10114000005407E0380502D544F4804402E0284604
:1011500000F02AFAF80316D529684FF48030886029
:10116000B80303D5284600F022FA0CE0780302D534
:1011700044F4004407E0380302D544F4803402E02C
:10118000284600F013FA300707D55FEACB6004D594
:101190002968102044F40074C86070074FF00807F5
:1011A00007D55FEA0B7004D52868C760284600F0B1
:1011B00099F9B00706D52868C068800702D028468C
:1011C00000F092F9700607D55FEACA6004D5296875
:1011D000102044F480640861B00607D55FEA0A7005
:1011E00004D528680761284600F0ACF9F00606D55A
:1011F00028680069800702D0284600F0A4F9B003EF
:1012000008D55FEAC96005D52968102048602846DE
:1012100000F09AF9F00307D55FEA097004D5286851
:101220004760284600F0C4F9300446D55FEA4970AB
:1012300040D5F00504D55FEAC87001D044F0010440
:10124000B00504D55FEA887001D544F0020470054A
:1012500004D55FEA487001D544F00404300529D56F
:1012600018F0700F26D008F07000402815D006DC6A
:10127000102809D020280AD0302816D10AE050289A
:101280000ED0602811D10EE044F008040DE044F0C7
:1012900010040AE044F0200407E044F0400404E0B5
:1012A00044F0800401E044F480742868816921F0EE
:1012B00070018161296804204860002C05D0686AAB
:1012C000204368622846FFF78FFEBDE8F09F70B5A7
:1012D000040003D094F8200010B104E0012070BD98
:1012E000204600F081F82068016821F002010160C9
:1012F00000F0BEFB0546052604E000F0B9FB401BEC
:101300000A2811D8206840688007F6D42068016850
:1013100041F00101016000F0ABFB05460BE000F07D
:10132000A7FB401B0A2806D9606A40F400306062BF
:1013300084F82060D2E720684068C007EFD0207EA4
:101340000128206801683DD021F080010160607EA5
:1013500001282068016838D021F040010160A07E9A
:1013600001282068016833D021F020010160E07E6F
:101370000128206801682ED041F010010160207F13
:1013800001282068016829D021F008010160607FF0
:1013900001282068016824D021F004010160D4E90B
:1013A00002010843D4E90412114308436168491E4D
:1013B00008432168C86100206062012084F8200091
:1013C000002070BD41F08001C0E741F04001C5E759
:1013D00041F02001CAE721F01001CFE741F00801F8
:1013E000D4E741F00401D9E7F0B587B004461421F1
:1013F0006846FFF709F9364B3648DFF8D0E0196840
:10140000D4F800C0334A03250226092710300024EF
:10141000491CF44522D11960012907D1016841F026
:1014200000710160006800F000700590106840F0E5
:10143000080010601068CDE9005600F00800CDE902
:10144000047069462448CDE9024500F033FA0022D1
:101450000621142000F0E4FC142032E0DFF87CE0E8
:10146000F44530D1D0F800C04CF0806CC0F800C01A
:10147000D0F800C001290CF0806CCDF814C01960C0
:1014800007D1016841F000710160006800F0007050
:101490000590106840F002001060106802AB00F088
:1014A000020005906020CDE9000683E8B00069469F
:1014B0000B4800F0FFF900220621402000F0B0FCAC
:1014C000402000F09FFC07B0F0BD00000064004029
:1014D0000C00002030380240000C02400068004040
:1014E000000402407047000000B58BB001AB03AAB6
:1014F0000021FFF77AFD0398A0F2012006281AD8F0
:101500000E49C0B200EB800208700D4901EB4200A9
:1015100031F812300381BDF804305BBA21F8123083
:10152000BDF8061049BA4180BDF8081049BA81805B
:101530009DF80A1081710BB000BD00001802002058
:10154000C48B0020704770477047000070B5044698
:1015500090F82000012804D0606A40F40020606206
:1015600018E0022084F820002068016821F00101C1
:10157000016000F07DFA05460EE000BF00F078FA49
:10158000401B0A2808D9606A40F4003060620520D8
:1015900084F82000012070BD20684068C007EDD1AC
:1015A000606270BD70477047704770477047704702
:1015B000704710B5040002D0607910B106E0012038
:1015C00010BD00202071204600F006F80220607156
:1015D00001206071002010BD08B5006806498842EE
:1015E00008D10648016841F480510160006800F4A8
:1015F0008050009008BD00000030024030380240AA
:101600002DE9F84304464FF00009CDF800906348F7
:101610004FF41651A56D0068B0FBF1F72E6894F8F1
:101620005C10082000FA01F131420FD021680A68ED
:1016300052070BD50A6822F004020A6094F85C1085
:101640008840A860606D40F00100606594F85C100F
:101650004FF0010808FA01F0304208D021684969CA
:10166000090604D5A860606D40F00200606594F83A
:101670005C1004208840304208D02168096889073E
:1016800004D5A860606D40F00400606594F85C10BB
:1016900010208840304218D021680968090714D505
:1016A000A86020680168490304D50068000308D5D4
:1016B000A16C07E00168C90503D4016821F00801A5
:1016C0000160216C09B12046884794F85C10202005
:1016D0008840304231D021680968C9062DD5A860FC
:1016E00094F8350005282068016806D0490347D5DD
:1016F000006800031DD4616C1CE021F0160101603C
:101700002068416921F080014161206C08B9A06C1A
:1017100020B12068016821F00801016094F85C1094
:101720003F208840A86084F8349084F83580216D8B
:101730001FE0E16B09B120468847606D00282BD07F
:10174000606DC00714D0052084F83500206801685A
:1017500021F0010101600098401C0090B84203D8BC
:1017600020680068C007F6D184F8349084F835808A
:10177000E16C002910D001B02046BDE8F0430847D5
:101780000168C905D5D4016821F01001016084F811
:10179000349084F83580CCE7BDE8F88384000020DD
:1017A0002DE9F041044600F063F906465CB10025DE
:1017B00084F83450022084F835002068016821F054
:1017C000010101600DE00120BDE8F08100F050F959
:1017D000801B052805D920206065032084F835008A
:1017E000F2E720680068C007F0D12268116820483D
:1017F0000140D4E901031843D4E9033633431843C5
:1018000063691843A3691843E3691843236A1843BB
:101810000843616A042903D1D4E90B13194308432F
:10182000106020684069666A20F0070130460E4368
:10183000012704280CD1A06A0643E06A40B1204683
:10184000FFF786F920B14020606584F83570BAE76B
:10185000206846612046FFF767F994F85C203F2135
:1018600091408160656584F835700020ACE7000028
:101870003F8010F070B5044600F0FAF80546601C91
:1018800002D004480078044400F0F2F8401BA04263
:10189000FAD370BD7800002070470000044910B5ED
:1018A0000A68024202D00860FFF7F6FF10BD000090
:1018B000143C01402DE9F84FDFF87CB100224FF0D5
:1018C00001084FF0030A4FF00F090BF1040E00BF9F
:1018D0000B6808FA02F42340A3426ED14D68022D32
:1018E00001D0122D0ED1D50800EB850CDCF820506C
:1018F0005607F70E09FA07F6B5430E69BE402E43A8
:10190000CCF82060066855000F790AFA05FC07F04C
:10191000030726EA0C06AF40374307604E68012EE6
:1019200005D0022E03D0112E01D0122E0ED18668C2
:10193000CF6826EA0C06AF40374387604668A64367
:101940000C79C4F30014944034434460C6688C6836
:1019500026EA0C06AC403443C4604C68E40065D50C
:10196000364C256845F480452560246822F003053F
:1019700004F480440094324C2E19D6F80848950798
:101980002F0F09FA07F5AC432E4DA84201D10025CF
:1019900024E02D4DA84201D101251FE02B4DA84286
:1019A00001D102251AE02A4DA84201D1032515E0F4
:1019B000284DA84202D1042510E037E0264DA84268
:1019C00001D105250AE0254DA84201D1062505E0F3
:1019D000234DA84201D1072500E00825BD4025433D
:1019E000C6F80858DBF800405D464E689C43F60395
:1019F00000D51C432C60DEF8004075464E689C43C1
:101A0000B60300D51C432C600B4D08352C684E687E
:101A10009C43F60200D51C432C60074D0C352C6806
:101A20004E689C43B60200D51C432C60521C102A01
:101A3000FFF44EAFBDE8F88F003C0140443802404F
:101A40000030014000000240000402400008024053
:101A5000000C024000100240001402400018024036
:101A6000001C02400AB1816170470904FBE70000D5
:101A700001488068704700007800002070B50400BD
:101A80001BD094F83D00002520B984F83C50204636
:101A900000F0AEF8242084F83D002068016821F0B1
:101AA0000101016000F0D8FF4D4A6168914201D800
:101AB0004C4900E04C49884201D2012070BD4B499D
:101AC0002368B0FBF1F15E6826F03F060E435E60CE
:101AD0006368934206D94FF4967359434FF47A736F
:101AE000B1FBF3F12368491C1E6A26F03F0631431F
:101AF00019626168914210D84900401EB0FBF1F2B2
:101B0000521CC2F30B02042A01D2042022E0B0FBD3
:101B1000F1F0401CC0F30B001CE0A368F3B301EB31
:101B2000C10202EB0116421EB2FBF6F2521C42F455
:101B30008042120549D093B301EBC10202EB0111BF
:101B4000401EB0FBF1F0401CC0F30B0040F480409D
:101B500040F400402168CA694CF6FF739A43104371
:101B6000C861D4E90701084321680A6822F0C0026D
:101B700010430860D4E9030101432068826848F2F9
:101B8000FF339A4311438160D4E90501084321687A
:101B9000CA6822F0FF021043C86001E00EE016E0C0
:101BA0002068016841F0010101602564202084F86B
:101BB0003D00256384F83E50002070BD01EB4106D6
:101BC000421EB2FBF6F2521CB3E70120C2E701EB62
:101BD0004101401EB0FBF1F0401CC0F30B00B7E721
:101BE000A086010080841E0000093D0040420F00D5
:101BF0002DE9F04387B0074614216846FEF704FD3F
:101C0000484C474B3A6800264648122103251034B9
:101C10004FF001084FF004099A4218D1026842F0CF
:101C200002020260006800F00200059028028DE8C0
:101C30000301CDE9035969463B48FFF73BFE2068A5
:101C400040F400102060206800F4001065E0374B7D
:101C50009A4234D1026842F0200202600068CDE965
:101C6000005100F02000CDE90490CDE902856946DD
:101C70002F48FFF71FFE206840F480002060206896
:101C80002D4C00F4800005902A4820604FF06060E1
:101C900060604020C4E902060001C4E90406C001F6
:101CA000A661C4E9076020466662FFF779FD08B1C6
:101CB000FEF785FF7C63A76307B0BDE8F0831F4B89
:101CC0009A42F9D1026842F004020260026802F00E
:101CD00004020592026842F00102026000680E46AA
:101CE00000F00100059058158DE84101CDE9035938
:101CF00069461348FFF7DEFD4FF480708DE841011F
:101D0000CDE9035969460F48FFF7D4FD206840F438
:101D100000002060206800F400000590CCE700007F
:101D20000054004030380240000402400058004097
:101D300000140240B8600240F00A0020005C00403D
:101D40000008024000000240024881680278114405
:101D500081607047780000200B4810B5016841F49D
:101D600000710160016841F480610160016841F423
:101D700080710160032000F073F80F2000F006F876
:101D800000F024F8002010BD003C024070B50D4D5D
:101D900004464FF47A712878B1FBF0F00A490968DB
:101DA000B1FBF0F001F0A2F948B9102C07D20022E3
:101DB0002146501E00F034F800206C6070BD0120F8
:101DC00070BD000078000020840000200C4882B024
:101DD000016841F480410160006800F48040009097
:101DE0000748001F016841F080510160006800222F
:101DF00000F0805000900F21901E02B000F010B84B
:101E000044380240002809DB00F01F020121914004
:101E10004009800000F1E020C0F800117047000088
:101E2000F0B40E4B1B680C46C3F30223C3F1070545
:101E3000042D00D90425191D072901D2002300E033
:101E4000DB1E012606FA05F1491E214099409E40FD
:101E5000761E16403143F0BC04F07FBB0CED00E071
:101E6000064900F0070208684FF6FF03184040EAF1
:101E70000220034A10430860704700000CED00E0A8
:101E80000000FA0570470068416200207047F0B515
:101E90000368586A39B19C6A4FF4827600EB1444A7
:101EA00000204D1E0AE040EA024098620FE006EB77
:101EB0008007DF59401C04EB1744C0B2A842F6D398
:101EC00044EA02404FF4807202EB81015850002036
:101ED000F0BDD0F8040403F07CBBC1EBC10200EB01
:101EE0008202D0F80404926C03F0CFBAC1EBC102B5
:101EF00000EB8202D0F80404D2F8082203F028BBD9
:101F0000D0F8040403F067BB70B504460B0601F07B
:101F10000F00C0EBC00104EB81014FF001024FF054
:101F2000000503D581F83D203C3103E081F8FD51E7
:101F300001F5FE71087094F8BC03012808D084F8FC
:101F4000BC23206803F0BEFE84F8BC53002070BDA3
:101F5000022070BD70B5044601F00F006268904227
:101F600001D9012070BD0B0601F00F01C1EBC101C9
:101F700004EB81014FF001024FF0000503D581F819
:101F80003D203C3103E081F8FD5101F5FE718D707B
:101F9000087094F8BC03012808D084F8BC2320689A
:101FA00004F06CF884F8BC53002070BD022070BDB2
:101FB00001F00F01C1EBC10100EB8100D0F8140268
:101FC00070472DE9F04104460F0601F00F00C0EB09
:101FD000C00104EB81014FF001064FF0000503D56D
:101FE00081F83D603C3103E081F8FD5101F5FE715F
:101FF00008708A60CB704A7802B1C880022B00D189
:102000000D7194F8BC03012809D084F8BC632068E2
:1020100003F0A8FD284684F8BC53BDE8F0810220F7
:10202000FBE770B50C4601F00F05C5EBC50100EBF1
:102030008101C1F81032C1F808220023C1F814321E
:1020400081F8FD3181F8FC51036901F5FE71012B26
:1020500000D10A612207027C006803D004F066F810
:10206000002070BD03F052FFFAE770B504460D463C
:1020700001F00F006168884201D9012070BD290676
:102080004FF000064FF0010207D5C0EBC00104EB92
:10209000810181F83D203C3107E0C5EBC50104EB2F
:1020A000810181F8FD6101F5FE718A70087094F874
:1020B000BC03012807D084F8BC23206804F00AF888
:1020C000280702D007E0022070BD217C04F5717260
:1020D000206803F0A7FF84F8BC63002070BD70B5D2
:1020E0000C4601F00F05C5EBC50100EB81010B6546
:1020F0008A6400234B65012381F83D3001F83C5F81
:102100000369012B00D10A612207027C006803D019
:1021100004F00CF8002070BD03F0F8FEFAE70000B0
:102120002DE9FC5F05680446284604F028F90028DC
:102130007ED1206804F04FF9002879D0206804F09F
:102140004AF9800704D52068416901F00201416124
:10215000206804F040F9010304F571704FF0010AA2
:102160004FF0080B009075D50026206804F012F996
:102170000746DFF808946BE0F80767D0F1B22068F3
:1021800004F021F98046C00707D005EB4611C1F8DD
:1021900008AB3146204602F01DF95FEA087032D5DF
:1021A0002068016C00EB46100191D0F8081B2269F1
:1021B000012A019A0FD0F24B9A4214D1090403D597
:1021C0004FF40041C0F8081B204600F0C9FA20690E
:1021D00001280FD013E04A4505D9090403D54FF46F
:1021E0000041C0F8081B204600F0BAFA01984845A3
:1021F000EDD804E020680121009A03F013FF05EBFD
:102200004611C1F808BB5FEAC86004D505EB46116A
:102210001020C1F8080B5FEA88600ED520690128FC
:1022200004D120680121009A03F0FCFE202100E087
:10223000A1E105EB4610C0F8081B5FEA884005D510
:1022400005EB46104FF40051C0F8081B7F08761CC0
:10225000002F91D1206804F0BEF840034FF0000930
:102260005FD5206804F08FF80746002657E0F8078E
:1022700053D0F1B2206804F094F88046C00726D00D
:1022800006F00F020AFA02F0D5F834288243C5F8A6
:10229000342805EB4610C0F808A92069012807D1A9
:1022A000C6EBC60004EB8000D0E911211144816423
:1022B000F1B22046FFF711FE2069012807D136B997
:1022C000206D20B920680121009A03F0ABFE5FEA7F
:1022D000087003D505EB4611C1F808B95FEAC8607C
:1022E00004D505EB46111020C1F808095FEA4860E3
:1022F00004D505EB46104021C0F808195FEA887044
:1023000004D505EB46100221C0F808195FEA086001
:1023100003D53146204602F0CBF87F08761C002F0B
:10232000A5D1206804F057F8002811DAD5F8040880
:1023300020F00100C5F8040894F8F40301282BD01C
:10234000204600F0F1F92068416901F00041416147
:10235000206804F040F800050BD5D5F80808C00740
:1023600002D0204600F024FA2068416901F400619F
:102370004161206804F02FF8C00461D5D5F8040845
:1023800020F00101C5F804181021206803F0D8FFDF
:1023900000214FF67F321AE084F8F49300212046A2
:1023A000FFF770FDCFE700BF05EB4110C0F808292B
:1023B000D0F8003923F40013C0F80039C0F8082B16
:1023C000D0F8003B23F40013C0F8003B491C6068C0
:1023D0008842E9D8D5F81C0840F00111C5F81C184E
:1023E000206B002828460DD0D0F8840840F00B0060
:1023F000C5F88408D5F8440840F00B012846C5F814
:1024000044180DE0D0F8140842F22B010843C5F837
:102410001408D5F8100840F00B012846C5F810182C
:10242000D0F8000820F4FE61C5F80018217C20686F
:10243000009A03F0F7FD2068416901F48051416181
:10244000206803F0C8FF800415D5206803F0CAFB9C
:10245000206803F087FFE06000F0F8FA0146227B75
:10246000206803F0F3FF204600F048F92068416936
:1024700001F400514161206803F0ADFFC00634D57E
:102480002068816921F0100181612F6A07F00F0037
:10249000C0EBC00004EB8006C7F3434006F5FE76B0
:1024A000022802D0062811D01AE047F6F070074241
:1024B00016D0C7F30A1217462846F16803F08FFFBB
:1024C000F0683844F060B069384408E008222846D3
:1024D000009903F084FFB069C7F30A110844B061A2
:1024E0002168886940F010008861206803F073FF5C
:1024F000000707D5204600F01BF92168486900F065
:1025000008004861206803F066FFC00208D500217A
:10251000204600F037F82168486900F480104861CF
:10252000206803F058FF800208D50021204600F003
:102530002DF82168486900F400104861206803F014
:102540004AFF400007D52046FFF7C3FC20684169D9
:1025500001F080414161206803F03DFF40070AD54A
:1025600020684568680702D52046FFF7C9FC206847
:10257000416829434160BDE8FC9F00000A30544F88
:102580000A31544FD0F8040403F074B8D0F80404AE
:1025900003F072B82DE9F0418AB0040005D094F838
:1025A000BD032668002520B108E001200AB0BDE87F
:1025B000F08184F8BC53204600F05EF8032084F8D4
:1025C000BD03F06BC00500D42561206803F098FCC2
:1025D00004F11001282288466846FDF7DBFF94E8E5
:1025E0000F0003F019FB0226C8BB0021206803F08E
:1025F00004FF002001270EE0C0EBC00104EB8101C5
:1026000081F83D7001F83C0FC880CD708D60CD60C1
:10261000401CC0B24D6161688142EDD8002011E0DC
:10262000C0EBC00104EB810181F8FD5181F8FC0190
:1026300081F8FF51C1F80452C1F80852401CC0B2E1
:10264000C1F8105261688142EAD8282241466846A2
:10265000FDF7A0FF94E80F0003F08CFB10B184F8A5
:10266000BD63A2E784F8385084F8BD73206803F096
:1026700075FB00209AE7000010B586B004461421CF
:102680006846FDF7C1FF2068B0F1A04F2FD119486F
:102690000021026842F001020260006800F00100BF
:1026A00005904FF4C05000900220CDE901010320B5
:1026B00003900A20049069460F48FFF7FBF80D4885
:1026C000001D016841F0800101600A481430016872
:1026D00041F4804101600068002200F480400590D0
:1026E00005214320FFF79CFB4320FFF78BFB06B03F
:1026F00010BD0000303802400000024070B50446B2
:10270000C068012570B1022801D0FEF758FA2946A9
:10271000D4F8040403F001F8D4F80404BDE87040D0
:1027200002F0C1BF0025F2E7D0F8040402F0E3BFD5
:10273000D0F8040402F0E5BF10B5044690F8BC03DD
:1027400001280BD0012084F8BC0384F838102068DD
:1027500003F06AFE002084F8BC0310BD022010BD07
:10276000D0F8042400F57171104602F0E2BF10B5F4
:102770000446006894F8BC13012906D0012184F8AE
:10278000BC13A16A012902D008E0022010BDA16992
:10279000012903D0816B41F480318163206803F00B
:1027A000D1FA206803F0B6FD002084F8BC0310BD08
:1027B00010B50446D0F8040402F0FAFF2068D0F8FF
:1027C000001E41F00101C0F8001E206A002804D05C
:1027D0000248016841F00601016010BD10ED00E003
:1027E0002DE9F843054600684FF00109C1074FF095
:1027F000000601D1400727D5DFF80C81C8F86860D2
:10280000FFF736F90746414C05E000BFFFF730F906
:10281000C01B022857D820680001F7D468688101DE
:10282000287A41EA0070394984310860C8F8689014
:10283000FFF71EF9074604E0FFF71AF9C01B02284C
:1028400041D820680001F7D52878800752D52F4855
:102850004030016841F08051016000682C4C00F06C
:1028600080500090206840F480702060FFF700F9ED
:10287000074604E0FFF7FCF8C01B022823D82068B5
:10288000C005F7D5214C7034206810F4407020D07A
:10289000A98901F4407181421BD020681D4920F4B0
:1028A0004070C1F800900E6020602068C00710D012
:1028B000FFF7DEF8064641F2883707E0FFF7D8F861
:1028C000801BB84202D90320BDE8F8832068800746
:1028D000F4D5E9680D48C1F301220830032A0BD072
:1028E000016821F4F81101602068A989C1F30B0186
:1028F000084320600020E7E70268074B22F4F81243
:1029000019400A430260EFE70000474200380240E6
:1029100000700040400E4742FFFCFF0F2DE9F047DA
:102920000E46050065D0DFF81481D8F80000F7B234
:1029300000F00F00B04207D288F80070D8F800000D
:1029400000F00F00B04254D128683D4C810712D5E9
:10295000400703D5206840F4E05020602878000745
:1029600003D5206840F4604020602068A96820F00A
:10297000F000084320602878C0072DD030496868EF
:102980000839012812D0022813D0032811D0096871
:10299000890700292DDA216821F003010143216014
:1029A000FFF766F8814641F2883A0EE0096889032C
:1029B000EFE709688901ECE7FFF75AF8A0EB090196
:1029C000514502D90320BDE8F0872068696800F00E
:1029D0000C00B0EB810FEFD1D8F80010404601F0A9
:1029E0000F01B14207D90770006800F00F00B04234
:1029F00001D00120E7E72878400705D52068E9687D
:102A000020F4E050084320602878000706D52068AD
:102A1000296920F4604040EAC100206000F03CF8E1
:102A20002168084AC1F30311515CC8400649086097
:102A30000F20FFF7ABF90020C5E70000003C024083
:102A4000083802407C8800088400002001480068A3
:102A500070470000840000200448054900680968A8
:102A6000044AC1F38221515CC840704784000020B1
:102A7000083802408C880008044805490068096845
:102A8000044AC1F34231515CC840704784000020C1
:102A9000083802408C880008154810B5006810F00E
:102AA0000C02144813D01449042A0FD0082A0ED15E
:102AB0000F4C241F2268236802F03F025B0207D5F7
:102AC0002068C0F38810A0FB010106E0084610BD95
:102AD0002168C1F38811A1FB00010023FDF79EFCD2
:102AE0002168C1F30141491C4900B0FBF1F010BD60
:102AF000083802400024F400001BB7002DE9F84F0D
:102B0000050076D02878DFF8F8B2BE4CC00749D06F
:102B1000DBF800105846C1F38101012908D0006894
:102B2000C0F3810002280AD1201D0068400206D5AA
:102B30002068800336D568680028E2D032E06868F3
:102B4000B0F5803F10D0B0F5A02F206810D020F451
:102B500080302060206820F4802020606868A0B168
:102B6000FEF786FF06460CE0206840F48030F4E76C
:102B700040F480202060F7E7FEF77AFF801B64288E
:102B800073D820688003F7D50CE0FEF771FF064686
:102B900005E000BFFEF76CFF801B6428F0D82068BA
:102BA0008003F7D42878DFF8608280074FF00009AF
:102BB0003ED5DBF80010584611F00C0F09D0006824
:102BC000C0F3810002280BD18D48001F006840022D
:102BD00006D42068800715D5E868012809D111E0DE
:102BE000E868B8B10120C8F80000FEF741FF0646CA
:102BF00005E002E1FEF73CFF801B0228C0D82068F8
:102C00008007F7D52068296920F0F80040EAC10064
:102C100020600DE0C8F80090FEF72AFF064604E0A9
:102C2000FEF726FF801B02281FD820688007F7D4F4
:102C30002878000722D5724E744869696C3671B1E4
:102C400001210160FEF714FF074604E0FEF710FFC4
:102C5000C01B022809D830688007F7D50EE0C0F8FD
:102C60000090FEF705FF074605E083E0FEF700FF52
:102C7000C01B02287ED830688007F7D42878400728
:102C800068D5DFF87CA100270AF1380ADAF80000DD
:102C9000C0000BD4DAF8001041F08051CAF80010DF
:102CA000DAF80000012700F080500090584E30689C
:102CB000C00510D4306840F480703060FEF7D8FE54
:102CC000009005E0FEF7D4FE0099401A022851D882
:102CD0003068C005F6D54A4EA868683601280FD07E
:102CE0000528306810D020F001003060306820F0F6
:102CF00004003060A868B8B1FEF7BAFE00900FE09B
:102D0000306840F00100F4E740F004003060F7E77D
:102D1000FEF7AEFE0099411A41F28830814264D834
:102D200030688007F4D50EE0FEF7A2FE009007E0C1
:102D3000FEF79EFE0099411A41F28830814254D834
:102D400030688007F4D42FB1DAF8001021F08051F8
:102D5000CAF80010A869C0B3DBF80010C1F3810104
:102D600002294AD00228484607D0C8F86000FEF77A
:102D70007FFE00E039E005463AE04746C8F86000CB
:102D8000FEF776FE064604E0FEF772FE801B022880
:102D90002BD820688001F7D4D5E907010843A96A38
:102DA0001C4A490802EB01416A6A41EA8211084360
:102DB00095F82C1040EA01611148001F01600120C4
:102DC0003866FEF755FE054605E014E0FEF750FEB6
:102DD000401B022809D820688001F7D50BE000BF0E
:102DE000FEF746FE401B022802D90320BDE8F88FFB
:102DF00020688001F4D40020F8E70120F6E7000005
:102E0000083802400038024000004742800E474226
:102E1000007000400000FFFF70B5040003D060792F
:102E2000002510B105E0012070BD2571204600F09D
:102E30000DF8022060712068016841F00401016012
:102E400001206071A560002070BD000008B5006819
:102E50000649884208D10648016841F040010160F6
:102E6000006800F04000009008BD00000008065017
:102E70003438024070B5040002D0607F10B106E023
:102E8000012070BD00202077204600F049F8022084
:102E900060772168CA204862216853204862204632
:102EA00001F04AFCFF25042618BB206881681B4AF4
:102EB000114081602168886862681043D4E9042366
:102EC0001A43104388602168E0680861206801693E
:102ED000228941EA024101612068C16821F0800134
:102EE000C16020688068800607D4204600F024F87E
:102EF00018B1206845626677C2E72068016C21F44A
:102F0000802101642068016CA2691143016420687A
:102F1000456201206077002070BD0000BFFF8FFF79
:102F200000680349884202D10249012008607047C5
:102F3000002800403C0E474270B504460068C16856
:102F400021F0A001C160FEF793FD05464FF47A76AB
:102F500007E000BFFEF78CFD401BB04201D9032003
:102F600070BD2068C0688006F4D5002070BD70B5C3
:102F7000040005D00025A56294F8510010B106E0C8
:102F8000012070BD84F85050204600F031F8022036
:102F900084F851002068016821F040010160D4E903
:102FA00001010843D4E9031211430843616908434E
:102FB000218B01F400710843E1690843216A084349
:102FC000A16A084321680860A069042101EA104051
:102FD000616A0843216848602068C16921F4006182
:102FE000C1616565012084F85100002070BD0000BA
:102FF0002DE9F04387B0064614216846FDF704FB2F
:1030000034493068884261D133480025016841F471
:1030100080510160006800F4805005902E481438FB
:10302000016841F002010160016801F002010591AF
:10303000016841F0010101600068022400F0010014
:103040000590182001274FF003084FF005098DE87F
:10305000910369462148FEF72DFC80208DE89103FD
:1030600069461F48FEF726FC1F4C1E484FF0C067FC
:103070002060C4E901754FF48068C4E903586561B4
:103080007812A561C4E9075020466562FEF788FB07
:1030900008B1FDF794FDF464A663134C1148603445
:1030A0001830E4E802074020A4E82101C00244F8F7
:1030B0001459A561C4E907500B4865626030FEF7FA
:1030C0006FFB08B1FDF77BFDB464A66307B0BDE8F4
:1030D000F083000000300140443802400004024008
:1030E0000000024040640240D80B002010B5401E92
:1030F000B0F1807F01D3012010BD4FF0E02460616A
:103100000F21601703F029FA0020A0610720206139
:10311000002010BD10B590F83C20012A22D00122D9
:1031200080F83C20CA688C6822F4407222434C68C4
:1031300022F4806222430C6822F4006222430C696C
:1031400022F4805222434C6922F400522243C9697E
:10315000002322F480420A4301684A6480F83C302C
:10316000002010BD022010BD70B590F83C20012A4F
:1031700019D0012400F83C4F0222427050F83C3C28
:103180005A689D6822F070060A684968324325F043
:10319000800529435A6050F83C2C9160447000210E
:1031A0000170084670BD022070BD10B5040003D048
:1031B00094F83D0010B107E0012010BD002084F814
:1031C0003C00204600F00CF8022084F83D00211D50
:1031D000206801F053FB012084F83D00002010BD61
:1031E00008B52349026823488A4207D1016841F0A3
:1031F00001010160006800F001000AE01D491E4B5A
:10320000091F9A4207D1086840F002000860086868
:103210001FE0009008BD194B9A4207D1086840F0A2
:1032200004000860086800F00400F2E7144B9A42BA
:1032300007D1086840F008000860086800F008003E
:10324000E7E710498A4207D1016841F002010160B5
:10325000006800F00200DCE70B498A42DAD101681D
:1032600041F400310160006800F40030D1E7000053
:1032700000000140443802400004004000080040C3
:10328000000C00400004014000440140022180F88D
:103290003D1001688A6802F00702062A03D00A6816
:1032A00042F001020A60012180F83D1000207047C1
:1032B00070B5044690F83C00012817D0012584F829
:1032C0003C50022084F83D002068826822F077029A
:1032D00022F47F4282600868502830D00DDC20281C
:1032E0004DD005DC98B310283BD148E0022070BDDA
:1032F000302844D0402834D139E0602828D07028C4
:1033000006D0B0F5805F2CD0B0F5005F29D10AE07F
:10331000CB68D1E90121206801F021FB2068816898
:1033200041F0770109E0CB68D1E90121206801F083
:1033300016FB2068816841F48041816011E0CA6811
:103340004968206801F0E0FB5021206807E016E0A2
:10335000CA684968206801F0E8FB6021206801F034
:1033600008FB84F83D50002084F83C0070BDCA681A
:103370004968206801F0C8FB40212068EFE7226817
:1033800001461046EBE700002DE9F04186B0044607
:1033900014216846FDF738F9474A21684748022456
:1033A0000125914210D1016841F0100101600068CF
:1033B000694600F0100005904FF4D4408DE83100CC
:1033C0003F48CDE9034513E03E4ADFF8FC809142D7
:1033D00013D1016841F0040101600068694600F002
:1033E0000400059090158DE8310003944046049444
:1033F000FEF760FA06B0BDE8F081344A0326914238
:103400000ED1016841F0080101600068694600F0D2
:103410000800059010148DE871002D480494E7E72A
:103420002C4A914210D1016841F08001016000688E
:10343000694600F0800005904FF4E0508DE83100BF
:10344000039425480494D3E7244A4027914220D18D
:10345000016841F480710160016801F48071059197
:10346000016841F00401016000680097CDE9014561
:1034700000F00400CDE90460694603941848FEF7A3
:1034800019FA0097CDE90145CDE903466946404662
:10349000AEE7144A9142ADD1016841F020010160CC
:1034A00000680097CDE9014500F02000CDE90460F7
:1034B000694603940C489BE7000001403038024005
:1034C00000100240000400400008024000080040D4
:1034D000000C0240000C0040001C024000040140AF
:1034E00000200240004401400014024070B5044630
:1034F00090F83C000D4601280DD0012684F83C6070
:10350000022084F83D0042B1042A18D0082A2AD0AB
:103510000C2A4DD139E0022070BD206801F032FA4A
:103520002068816941F0080181612068816921F08A
:1035300004018161206881692A69114311E02068D2
:1035400001F050FA2068816941F4006181612068CE
:10355000816921F480618161206881692A6941EA79
:103560000221816124E0206801F072FA2068C169BB
:1035700041F00801C1612068C16921F00401C16105
:103580002068C1692A69114311E0206801F094FAAA
:103590002068C16941F40061C1612068C16921F4FA
:1035A0008061C1612068C1692A6941EA0221C16163
:1035B00084F83D60002084F83C0070BD10B5040024
:1035C00003D094F83D0010B107E0012010BD0020A9
:1035D00084F83C00204600F00CF8022084F83D00FE
:1035E000211D206801F04AF9012084F83D000020E7
:1035F00010BD704710B504460068012201F0A2F921
:103600000B492068884202D00A49884203D1416CA4
:1036100041F4004141642068816801F007010629F6
:1036200003D0016841F001010160002010BD0000DD
:10363000000001400004014070B5040004D094F87B
:103640003900002510B106E0012070BD84F8385023
:10365000204600F023F8242084F839002068C1684F
:1036600021F40051C160204601F072FA206801691E
:1036700021F4904101612068416921F02A014161F2
:103680002068C16841F40051C160E563202084F8DE
:10369000390084F83A00002070BD00002DE9F04F99
:1036A00087B0044614216846FCF7AEFF7B48DFF87C
:1036B000E8811438D4F800C0784B02270121032296
:1036C000002506154FF0070BC44549D1D3F800C0BB
:1036D0004CF0100CC3F800C01B6803F010030593F6
:1036E000036843F002030360036803F002030593D9
:1036F000036843F00103036000688A4600F001009C
:10370000059080208DE88104CDE9032B9146D846B1
:1037100069466348FEF7CEF870108DE88104CDE964
:10372000039869465F48FEF7C5F8604F5E4807F1A9
:103730000808386070047860402088E861007D6186
:103740008002BD61C7E9075038467D62FEF728F860
:1037500008B1FDF734FA2763BC6307B0BDE8F08F0A
:10376000DFF84C814FF40039C4453CD14B4B1B1F53
:10377000D3F800C04CF4802CC3F800C01B6803F4DD
:1037800080230593036843F004030360006802ABE1
:1037900000F00400059083E806084FF44060CDE98E
:1037A000000769464348FEF785F8404F42486037B6
:1037B00038604FF00060C7E90105C7E903567D6135
:1037C000BD61C7E9075938467D62FDF7E9FF08B1D9
:1037D000FDF7F5F96763002204212720BC63FEF79B
:1037E0001FFB272055E0DFF8D480C445B5D1D3F8BE
:1037F00000C04CF0200CC3F800C01B6803F020038D
:103800000593036843F0400303600068CDE90212AA
:1038100000F0400005904FF48440CDE900070820F7
:10382000049069462648FEF745F8204F1E48C037E9
:10383000903838604FF02068C7E90185C7E9035622
:103840007D61BD61C7E9075938467D62FDF7A8FF74
:1038500008B1FDF7B4F96763BC631348194F183812
:10386000E7E80208402061C7800247F81459BD61AB
:10387000C7E9075013487D62FDF792FF08B1FDF7D5
:103880009EF92763002205214720BC63FEF7C8FA92
:103890004720FEF7B7FA60E70010014044380240C5
:1038A0000004024000000240B8640240D80E00202C
:1038B0000048004000080240286002400014014017
:1038C00000180240F80F0020FEE70000F0B50023CA
:1038D0000A24302537261F4611E000BFB4EB107FC5
:1038E00002D905EB107C01E006EB107C01F813C057
:1038F00001EB430C00015B1C8CF80170DBB29342BE
:10390000ECD3F0BD7FB500241548009401940294D7
:103910001249039401604FF40031C0E901140461BD
:10392000047680F820400F49C0E90A140125C561DA
:10393000C46080F830404561FDF7E8F908B1FDF753
:103940003EF91020CDE90005694602940448FDF7D0
:1039500037F9002801D0FDF732F97FBD0020014082
:10396000140900200100000F7FB5002415480094C1
:10397000019402941249039401604FF40031C0E9AC
:1039800001140461047680F820400F49C0E90A144C
:103990000125C561C46080F830404561FDF7B6F986
:1039A00008B1FDF70CF90820CDE90005694602943D
:1039B0000448FDF705F9002801D0FDF700F97FBDA7
:1039C000002201405C0900200100000F0F4810B5E3
:1039D0000D4901600321416000214FF410228160F4
:1039E000C0E903124FF400124261017641768176FC
:1039F000C17601774177FDF76AFC002803D0BDE866
:103A00001040FDF7DCB810BD00640040A4090020A0
:103A10000F4810B50D4901600321416000214FF4AA
:103A200010228160C0E903124FF400124261017656
:103A300041768176C17601774177FDF748FC002811
:103A400003D0BDE81040FDF7BAB810BD00680040D3
:103A5000CC090020074910B5054808600846FDF765
:103A6000A8FD002803D0BDE81040FDF7A8B810BDA0
:103A70000030024010000020254808B5016841F4DC
:103A800080010160016801F480010091016841F446
:103A9000001101600068002200F400100090052170
:103AA0000C20FEF7BDF90C20FEF7ACF90022052131
:103AB0002F20FEF7B5F92F20FEF7A4F900220521EB
:103AC0003920FEF7ADF93920FEF79CF900220521D7
:103AD0003A20FEF7A5F93A20FEF794F900220521D5
:103AE0003B20FEF79DF93B20FEF78CF900220521D3
:103AF0004520FEF795F94520FEF784F900220521BF
:103B00004620FEF78DF9BDE808404620FEF77AB959
:103B10003038024010B596B01C2211496846FCF7B7
:103B200039FD0021684602F06BFE0E4C0C491C2248
:103B3000A0601C3107A8FCF72DFD002107A802F0AA
:103B40005FFE074920601C2238310EA8FCF722FDD9
:103B500000210EA802F054FE606016B010BD0000F7
:103B600020880008000000202DE9F04786B01421CD
:103B70006846FCF749FD69480025016841F00201EB
:103B80000160016801F002010591016841F0400106
:103B90000160016801F040010591016841F00101F7
:103BA0000160016801F001010591016841F008011F
:103BB0000160016801F008010591016841F004010C
:103BC0000160016801F004010591016841F4807110
:103BD0000160016801F480710591016841F02001E4
:103BE0000160016801F020010591016841F0800148
:103BF0000160016801F080010591016841F0100148
:103C000001600068464F00F010000590012240213D
:103C10003846FDF727FFDFF80C91012210214846B6
:103C2000FDF720FFDFF800A101224FF2010150460D
:103C3000FDF718FF8020CDE90005012469460294B4
:103C40003A48FDF737FE4020CDE90004029469466A
:103C500038460394FDF72EFE354E0920CDE90006C7
:103C6000694602943846FDF725FE0720CDE9000598
:103C7000DFF8C080694640460295FDF71BFECDE99E
:103C80000045694648460294FDF714FE1020CDE930
:103C900000040227CDE9024769464846FDF70AFEBF
:103CA0003020CDE90006694602944046FDF702FE49
:103CB0004FF47040CDE9000469465046CDE9024515
:103CC000FDF7F8FDCDE9024700946946504601949E
:103CD000FDF7F0FD062100220846FEF7A1F80620B8
:103CE000FEF790F8002205210920FEF799F8092037
:103CF000FEF788F8002205210A20FEF791F80A2035
:103D0000FEF780F8002205211720FEF789F817201A
:103D1000FEF778F806B0BDE8F087000030380240C2
:103D2000001802400000024000040240002002404F
:103D300000002110000802400D4810B50B49016039
:103D40000C49416000214FF480428160C0E90312B8
:103D500041618161C1610162FDF790FE002803D0DD
:103D6000BDE81040FCF72BBF10BD00000054004020
:103D7000F4090020801A06000D4810B50B490160B7
:103D80000C49416000214FF480428160C0E9031278
:103D900041618161C1610162FDF770FE002803D0BD
:103DA000BDE81040FCF70BBF10BD000000580040FC
:103DB000480A0020801A06000D4810B50B49016022
:103DC0000C49416000214FF480428160C0E9031238
:103DD00041618161C1610162FDF750FE002803D09D
:103DE000BDE81040FCF7EBBE10BD0000005C0040D9
:103DF0009C0A0020801A0600074910B50548086093
:103E00000846FFF709F8002803D0BDE81040FCF78A
:103E1000D6BE10BD00080650500B00200C4810B54F
:103E20000A49016000217C22C0E9011240F67F426C
:103E3000C0E9032141618161FFF71CF8002803D02C
:103E4000BDE81040FCF7BBBE10BD000000280040DC
:103E5000600B0020104810B50E4901604FF48271CC
:103E60004160002102228160C0E903120122426107
:103E7000520282613822C0E90721416281620A212F
:103E8000C162FFF774F8002803D0BDE81040FCF7CA
:103E900096BE10BD00300140800B002010B588B0E8
:103EA0001C216846FCF7B0FB144813490024C0E904
:103EB000001441F28731C0E9024104618461FFF7D7
:103EC00074F908B1FCF77BFE0C48FFF777FB08B1EB
:103ED000FCF775FE6020CDE90004029400226946DB
:103EE00006480494FFF702FB08B1FCF768FE03489C
:103EF000FFF74AFA08B010BD00440140D80D002079
:103F000010B596B000240F94109411941294139449
:103F10001C2168461494FCF777FB202107A8FCF7C6
:103F200073FB354833490160A721C0E9011444F609
:103F30001F61C0E9031444618461FFF736F908B1D9
:103F4000FCF73DFE4FF480500F900FA92A48FFF771
:103F5000AFF908B1FCF733FE2748FFF72FFB08B194
:103F6000FCF72DFE139413A923481494FFF7FCF8D3
:103F700008B1FCF724FE602000904FF47A70CDE980
:103F80000104039404940594002269461A48069497
:103F9000FFF7ACFA08B1FCF712FE04226946164896
:103FA000FFF7A4FA08B1FCF70AFE08226946124896
:103FB000FFF79CFA08B1FCF702FE0C2269460E4896
:103FC000FFF794FA08B1FCF7FAFD079408940994F6
:103FD0004FF400500A94CDE90B4007A906480E940F
:103FE000FFF798F808B1FCF7EAFD0348FFF7CCF9B2
:103FF00016B010BD00000140980C002010B58EB026
:1040000000240794089409940A940B941C21684690
:104010000C94FCF7F9FA1E481C49C0E9001442F25E
:10402000CF01C0E9024104618461FFF7BEF808B125
:10403000FCF7C5FD4FF48050079007A91448FFF71F
:1040400037F908B1FCF7BBFD1148FFF7B7FA08B123
:10405000FCF7B5FD0B940BA90D480C94FFF784F801
:1040600008B1FCF7ACFD6020CDE900040294082201
:10407000694607480494FFF739FA08B1FCF79FFD39
:104080000348FFF781F90EB010BD000000040040A6
:10409000D80C002010B58EB0002407940894099421
:1040A0000A940B941C2168460C94FCF7ADFA1E4848
:1040B0001C490160A721C0E901144FF6FF71C0E956
:1040C00003148461FFF771F808B1FCF778FD4FF431
:1040D0008050079007A91448FFF7EAF808B1FCF7E9
:1040E0006EFD1148FFF76AFA08B1FCF768FD0B9402
:1040F0000BA90D480C94FFF737F808B1FCF75FFDEA
:104100006020CDE900040294082269460648049420
:10411000FFF7ECF908B1FCF752FD0348FFF734F95B
:104120000EB010BD00080040180D002010B58EB074
:1041300000240794089409940A940B941C2168465F
:104140000C94FCF761FA26482449C0E900144FF6A4
:10415000FF71C0E9024104618461FFF726F808B1EC
:10416000FCF72DFD4FF48050079007A91C48FFF77E
:104170009FF808B1FCF723FD1948FFF71FFA08B1B3
:10418000FCF71DFD0B940BA915480C94FEF7ECFFF2
:1041900008B1FCF714FD6020CDE900040294002270
:1041A00069460F480494FFF7A1F908B1FCF707FD31
:1041B000042269460A48FFF799F908B1FCF7FFFCA9
:1041C000082269460648FFF791F908B1FCF7F7FCA9
:1041D0000348FFF7D9F80EB010BD0000000C0040F6
:1041E000580D002010B596B000240F94109411942F
:1041F000129413941C2168461494FCF705FA2021AC
:1042000007A8FCF701FA2D482B490160A721C0E956
:10421000011444F61F61C0E9031444618461FEF790
:10422000C4FF08B1FCF7CBFC4FF480500F900FA9EE
:104230002248FFF73DF808B1FCF7C1FC1F48FFF723
:10424000BDF908B1FCF7BBFC139413A91B481494E7
:10425000FEF78AFF08B1FCF7B2FC602000904FF433
:104260007A70CDE901040394049405940022694610
:1042700012480694FFF73AF908B1FCF7A0FC0422B3
:1042800069460E48FFF732F908B1FCF798FC07942D
:10429000089409944FF400500A94CDE90B4007A903
:1042A00006480E94FEF736FF08B1FCF788FC034879
:1042B000FFF76AF816B010BD00040140980D002009
:1042C0000C4810B50A4901604FF4E131416000210A
:1042D00081600C22C160C0E904128161C161FFF7F5
:1042E000ABF9002803D0BDE81040FCF768BC10BD56
:1042F00000100140180E00200D4810B50B49016058
:104300000C49416000214FF480628160C0E90312D2
:104310000C22C0E90521C161FFF78EF9002803D006
:10432000BDE81040FCF74BBC10BD00000048004049
:10433000580E0020A08601000C4810B50A49016003
:104340004FF4E1314160002181600C22C160C0E97D
:1043500004128161C161FFF76FF9002803D0BDE845
:104360001040FCF72CBC10BD00140140980E00203A
:1043700010B500220F49104801F060F808B1FCF7B1
:104380001EFC0E490C4801F039FA08B1FCF717FC85
:104390000B49094800F07AFE08B1FCF710FC06480A
:1043A00001F082FA002803D0BDE81040FCF707BCFA
:1043B00010BD00001800002058100020D801002077
:1043C00068000020FEE770470148FDF7A9BE000025
:1043D000F41200202DE9F041044600680E46016CFD
:1043E00000EB4615D5F8080B276920234FF400424F
:1043F000012F08D02C4FB9424FD1010449D500BF3D
:10440000C5F8082B4DE0DFF8A4C05FEA007E04F594
:10441000717711D5614503D9000401D5C5F8082B82
:104420002046FEF79DF93A460121206801F0FAFD89
:104430000820C5F8080B34E05FEA806E02D5C5F8A5
:10444000083B2EE010F0280F2BD1614501D9000464
:10445000D6D4C6EBC60004EB8000D5F8102BD0F8FC
:104460000412C2F312028A1AC0F81422D0F80822E9
:104470001144C0F80812F1B22046FDF737FD86B9A5
:10448000D4F8100268B93A460121206801F0CAFD4B
:1044900007E0800601D5C5F8083BF1B22046FDF7DC
:1044A00025FD0020BDE8F0810A31544F0A30544FF9
:1044B0002DE9F84F0E46C1EBC60100EB81048146A1
:1044C0000568D4E914103C34884202D90120BDE8C3
:1044D000F88F081AA168814200D20846C01C8708DC
:1044E00005EB46181BE000BFA0EB010AA068504591
:1044F00000D282460AF10300870899F81000009064
:104500001FFA8AF3F2B22846E16802F013F8E16874
:1045100001EB0A00E060A16901EB0A00A061D8F894
:10452000180980B2B84205D3D4E90501814201D20D
:104530000028D9D1D4E90501884208D806F00F0136
:1045400001208840D5F834188143C5F8341800207C
:10455000BDE70000A0B1D0ED101AC0ED111A90ED2A
:104560000F1A80ED101AC0ED060A80ED070A30EE32
:10457000C00A80ED0F0A017829B101293BD078E00B
:104580009FED3D0A7047D0ED010A60EE801AC0ED44
:10459000091AD0ED0A0A90ED022A42EE000A30EE26
:1045A000410AC0ED0A0A90ED0D2A80ED0E2A90ED29
:1045B0000C2A80ED0D2A80ED0C0A90ED031A21EEF5
:1045C000001A80ED0B1A90ED050AF4EEC00AF1EE28
:1045D00010FA09DCB1EE400AF4EEC00AF1EE10FA6E
:1045E00002D390ED0A0A01E080ED0A0A31EE800A5A
:1045F00030EE010A2BE070EE410A90ED012A20EE28
:10460000822A80ED092AD0ED020A60EE800AC0ED10
:104610000A0AD0ED0D2A72EE200AC0ED0E2AD0ED66
:104620000C2AC0ED0D2AF0EE002A01EE620A30EEEF
:10463000210A80ED0C0A90ED031A21EE000A80EDAC
:104640000B0A30EE800AD0ED080A30EE200A80ED29
:10465000080AD0ED040AB4EEE00AF1EE10FA06DC26
:10466000F1EE600AB4EEE00AF1EE10FA01D2C0ED0C
:10467000080A90ED080A704700000000002828D0C2
:10468000002A26D0017092ED001A80ED011A92EDF9
:10469000011A80ED021A92ED021A80ED031A80EDE4
:1046A000040A9FED0C0AC0ED050A80ED0E0A80EDAC
:1046B0000D0A80ED0C0A80ED080A80ED0B0A80EDF2
:1046C0000A0A80ED090A80ED110A80ED100A80EDDA
:1046D0000F0A70470000000030B5144B1C68656974
:1046E00045F0400565611B68DC6844F01004DC603F
:1046F0000F4B1C68256825F0010525601C6825689E
:10470000ED07F7D11D680B4CAC601C68E0601868C1
:104710000161186842601868016841F480210160F5
:104720001868016841F00101016030BD580E002099
:10473000380F00200448004070B504460068C16886
:10474000490614D44FF0FF31C160FDF791F90546D9
:104750004FF47A7607E000BFFDF78AF9401BB042BC
:1047600001D9032070BD2068C0684006F4D5002040
:1047700070BD10B5FDF7E8FA03F088FE012803D0FC
:10478000BDE8104003F0AEBB10BD000030B597B0DF
:1047900030216846FBF738FF14210CA8FBF734FFE3
:1047A00000251E481195129513951495016841F046
:1047B00080510160006800F0805015901848016831
:1047C00041F4804101600068022400F480401590AB
:1047D00001200090000401908001CDE906400620F0
:1047E0000890A820CDE9090407200B906846FEF741
:1047F00085F90CA90F2081E831004FF4A0500F90EB
:10480000E002109005210CA8FEF788F805481490E6
:10481000119411A8FDF7E4FF17B030BD40380240F5
:104820000070004000031E001048016841F4700150
:1048300001600F48016841F0010101600C4A00214C
:104840000832116002680B4B1A400260031D0A4ACD
:104850001A60026822F48022026005480C30016070
:1048600002495806803908607047000088ED00E072
:1048700000380240FFFFF6FE10300024F0B5026859
:10488000254C264D264E274F274B4FF0804CA042FB
:1048900009D0604507D0A84205D0B04203D0B84245
:1048A00001D0984204D122F0700E4A6842EA0E020A
:1048B000A0421BD0604519D0A84217D0B04215D0F5
:1048C000B84213D0984211D0184DA8420ED0184DBE
:1048D000A8420BD0174DA84208D0174DA84205D0CA
:1048E000164DA84202D0164DA84203D122F44075BD
:1048F000CA682A434D6922F080022A4302608A680E
:10490000C2620A688262A04201D0984201D109695C
:10491000016301214161F0BD00000140000400403D
:1049200000080040000C004000040140004001402D
:10493000004401400048014000180040001C0040B5
:104940000020004010B501F01F030121046A9940C6
:104950008C430462016A9A401143016210BD10B594
:10496000846842EA032224F47F440A43224382609B
:1049700010BD826822F070020A4342F00701816094
:1049800070470000F0B5026A22F001020262036A79
:1049900042688469124E24F073050C682C4323F09E
:1049A00002058B682B430D4DA84201D0B04205D1C2
:1049B00023F00807CB683B4323F00403A84201D04F
:1049C000B04205D14D6922F4407215438A692A43E9
:1049D00042608461496841630362F0BD00000140A8
:1049E00000040140F0B5026A22F010020262026A7D
:1049F000436884690D6824F4E64444EA05248D681C
:104A000022F0200242EA05120F4D104EA84201D0BA
:104A1000B04206D1CF6822F0800242EA071222F0AB
:104A20004002A84201D0B04207D14D6923F440634F
:104A300043EA85038D6943EA8503436084614968DD
:104A400081630262F0BD00000000014000040140EB
:104A5000F0B5026A22F480720262026A4368C46995
:104A600022F4007224F073050C68124E2C438D68FA
:104A700042EA05220E4DA84201D0B04206D1CF68CD
:104A800022F4006242EA072222F48062A84201D0A6
:104A9000B04207D14D6923F4405343EA05138D69B1
:104AA00043EA05134360C4614968C1630262F0BD13
:104AB000000001400004014030B5026A22F4805237
:104AC0000262046A4268C3690D6823F4E64343EA5C
:104AD00005238D6824F4005444EA0534084DA842A7
:104AE00002D0084DA84204D14D6922F4804242EA26
:104AF00085124260C36149680164046230BD0000F0
:104B0000000001400004014010B5036A046A24F06B
:104B100001040462846924F0F00444EA021423F0DE
:104B20000A020A438461026210BD10B5036A23F0D1
:104B3000100303628369046A23F4704343EA023278
:104B400024F0A00343EA01118261016210BD00005C
:104B50002DE9F041044600680169E26821F4405102
:104B6000114301612169A068E26908436169114349
:104B700022680843D16849F20C6399430143D1602C
:104B800020684169A26921F4407111434161E269E1
:104B90006425B2F5004F9748974922684FF03208D4
:104BA0003FD08A4201D082427CD1FDF765FF00EB05
:104BB000C00101EB001061688900B0FBF1F6FDF760
:104BC0005BFF00EBC00101EB001061688900B0FBE6
:104BD000F1F0B0FBF5F06FF01801484306EB8001EF
:104BE00008EB0110B0FBF5F000F0F006FDF744FF14
:104BF00000EBC00101EB001061688900B0FBF1F02F
:104C0000B0FBF5F006EB0016FDF736FF00EBC00138
:104C100001EB001061688900B0FBF1F7FDF72CFF94
:104C2000D2E08A4201D082423DD1FDF725FF00EB60
:104C3000C00101EB001061684900B0FBF1F0B0FB6E
:104C4000F5F00601FDF718FF00EBC00101EB0010C5
:104C500061684900B0FBF1F7FDF70EFF00EBC00102
:104C600001EB001061684900B0FBF1F0B0FBF5F01A
:104C70006FF01801484307EB800108EBC100B0FB5F
:104C8000F5F000F0F80006EB4006FDF7F5FE00EB4E
:104C9000C00101EB001061684900B0FBF1F7FDF7BE
:104CA000EBFE3CE055E0FDF7D7FE00EBC00101EB69
:104CB000001061684900B0FBF1F0B0FBF5F00601AF
:104CC000FDF7CAFE00EBC00101EB0010616849006E
:104CD000B0FBF1F7FDF7C0FE00EBC00101EB0010E7
:104CE00061684900B0FBF1F0B0FBF5F06FF018011E
:104CF000484307EB800108EBC100B0FBF5F000F082
:104D0000F80006EB4006FDF7A7FE00EBC00101EB43
:104D1000001061684900B0FBF1F7FDF79DFE00EB64
:104D2000C00101EB001061684900B0FBF1F0B0FB7D
:104D3000F5F06FF01801484307EB800108EBC10064
:104D4000B0FBF5F000F00700216830448860BDE852
:104D5000F081FDF781FE00EBC00101EB00106168FE
:104D60008900B0FBF1F6FDF777FE00EBC00101EB27
:104D7000001061688900B0FBF1F0B0FBF5F06FF056
:104D80001801484306EB800108EB0110B0FBF5F079
:104D900000F0F006FDF760FE00EBC00101EB001033
:104DA00061688900B0FBF1F0B0FBF5F006EB00168E
:104DB000FDF752FE00EBC00101EB001061688900B5
:104DC000B0FBF1F7FDF748FE00EBC00101EB00106E
:104DD00061688900B0FBF1F0B0FBF5F06FF01801ED
:104DE000484307EB800108EB0110B0FBF5F000F041
:104DF0000F00A9E7001401400010014038B52A480F
:104E000000680168890603D501684068009038BDD4
:104E100026490968C906FAD501684068244A009005
:104E2000106801684FF024030C032249046824F041
:104E3000010404601AD410684468C4F12404A4B2C4
:104E40004C8043601068016841F4002101601068E3
:104E5000016841F001010160122CD8D1164901F11D
:104E60002C0002F057F914482C3019E014686068DF
:104E7000C0F1240080B24880636010498B6A23F43B
:104E800000238B6211680A6842F001020A6012284E
:104E9000BDD1094901F15000044602F03BF920461A
:104EA000BDE8384002F090B9580E0020004800409C
:104EB000380F002014020020508B002000600240B8
:104EC0002DE9F041D0F89832D0F89022DAB101EB18
:104ED000810400EB84040025E6694EB1C1EBC107F3
:104EE00003EB87035B6CB6FBF3F703FB176323B19C
:104EF000C2F814520020BDE8F08100231A46E56193
:104F000000F05FFCF6E70220F5E770B50546D0F843
:104F1000904200F06BFBC4F80C02D5F8900248B147
:104F2000D5F89412D4F80402CA6804F503719047C6
:104F3000002070BD022070BD70B50446002681219E
:104F400000F09AFA002501212046E56200F094FA6B
:104F500082212046C4F8585100F08EFA2564D4F816
:104F6000900248B1D4F8940204F524744068804754
:104F70002068FBF72CFA2560304670BD10B5D0E9EB
:104F8000A44159B194F80002FF2807D08B6894F827
:104F9000012221469847FF2084F80002002010BD1E
:104FA0000A21018000487047000100204321018050
:104FB000004870475001002043210180004870479D
:104FC0000C0100204321018000487047940100201B
:104FD0002DE9F04104460026007C4FF400770125BE
:104FE00090B3402302228121204600F047FB40235A
:104FF000E56202220121204600F040FB0823032243
:1050000082212046C4F8585100F038FB4FF4077055
:105010002564FBF7ADF9C4F89002F8B10546D4F861
:105020009402006880470020C5F81402C5F81802F1
:10503000207CD5F8042298B140230121204600F0BD
:1050400029FB3046BDE8F081FFE73B460222812183
:10505000204600F013FB3B46E562CAE70126F0E775
:105060003B46EAE710B5D0F8901269B1027C002AFD
:10507000D1F8042205D04023012100F00BFB0020D1
:1050800010BD4FF40073F7E7022010BD0246022066
:10509000002902D00020C2F894127047D0F8900284
:1050A000C0F8041200207047D0F89002C0F8102217
:1050B000C0F80812002070472DE9FC410546D0F8E1
:1050C000907200208DF80000ADF8040006460878C4
:1050D0000C4610F0600121D020293BD1E288AAB112
:1050E0000006607807D5D5F894128B683946984742
:1050F000E288394626E087F80002A07987F80102A5
:10510000E2883946284600F04FF828E0D5F8941296
:10511000607800228B682146984720E0607820B1B3
:105120000A2809D00B2815D110E095F8740203283D
:1051300010D1022201A905E095F87402032809D1D3
:1051400001226946284600F049F808E095F8740203
:10515000032804D02146284600F01BF802263046DA
:10516000BDE8FC8110B5D0F88C2252689047002031
:1051700010BD134610B50A46002100F08BFA00203E
:1051800010BD134610B50A46002100F01AFB00209E
:1051900010BD10B50446802100F0F8FA2046BDE8A5
:1051A0001040002100F0F2BA10B50323C0F84821E6
:1051B000C0F86C32C0F84C2113460A46002100F0BA
:1051C00069FA002010BD10B505210023C0F86C124B
:1051D0001A46194600F05EFA002010BD10B50223F1
:1051E000C261C0F86C32026213460A46002100F028
:1051F000E8FA002010BD10B504210023C0F86C129D
:105200001A46194600F0DDFA002010BD10B50A4616
:10521000024903A000F0E2F8004810BDFC1600208F
:1052200043444320436F6E66696700001220088084
:10523000004870473800002010B50A46024903A014
:1052400000F0CCF8004810BDFC1600204344432079
:10525000496E746572666163650000000420088011
:10526000004870473400002010B50A46024903A0E8
:1052700000F0B4F8004810BDFC16002053544D69EE
:1052800063726F656C656374726F6E69637300003F
:1052900010B50A46024903A000F0A0F8004810BD6E
:1052A000FC16002053544D333220566972747561D8
:1052B0006C20436F6D506F727400000010B51A209F
:1052C00008800A480168001D0468001D006808186D
:1052D00009D008220649FEF7F9FA054904221031DF
:1052E0002046FEF7F3FA0248801E10BD107AFF1F19
:1052F0004E000020F8B5044648880D46010A0829EA
:105300004BD2DFE801F04A0409174A4A4048D4F872
:105310008812207C0A6832E0207C02260028D4F81B
:105320008C0205D0C16A684688470146467041E054
:10533000816AF8E7C0B206282FD2DFE800F0030840
:105340000D12171CD4F88812207C4A6817E0D4F894
:105350008812207C8A6812E0D4F88812207CCA68FF
:105360000DE0D4F88812207C0A6908E0D4F888128D
:10537000207C4A6903E0D4F88812207C8A69694657
:105380009047014616E0207C38B9D4F88C02416B76
:1053900068468847F5E7207C20B129462046FFF77C
:1053A000F8FEF8BDD4F88C02016B684688470146C8
:1053B00007204870BDF8000048B1EA8852B1824227
:1053C00000D90246ADF800202046FFF707FFE88825
:1053D0000028E6D12046FFF70EFFF8BD70B5002388
:1053E00000281ED00446002502E06D1CEDB2641CAE
:1053F0002678002EF9D1022404EB4504148012789B
:10540000CA545B1C0322CA5400245B1C06E0CA5425
:105410005B1CDAB28C54521CD3B2401C0278002AB6
:10542000F5D170BD01004FF0000004D0012901D07A
:10543000022901D0022070470120704710B580B1C9
:10544000D0F88C3213B10023C0F88C3209B1C0F807
:105450008812012180F87412027000F0CBF800204D
:1054600010BD022010BD10B5D0F89802FCF772FDF7
:10547000BDE81040FFF7D6BF10B5D0F89802FCF792
:1054800043FDBDE81040FFF7CDBF2DE9F0411746C1
:10549000044651B1D4F88C0242691AB194F87402EE
:1054A000032851D00220BDE8F081D4F86C320025E9
:1054B00004F11400022B03D0042B3AD0C3B33CE018
:1054C000D0E903639E4207D9F11AC1608AB2394616
:1054D0002046FFF756FE12E08068B0FBF3F103FBB5
:1054E000110199B9984211D3D4F8701288420DD2A3
:1054F000002211462046FFF744FEC4F870520023F4
:105500001A461946204600F0C5F816E0D4F88C0279
:10551000C16829B194F87402032801D12046884754
:105520008021204600F032F92046FFF74CFE04E0CF
:10553000FFE78021204600F029F994F8780201283D
:1055400004D184F8785201E0204690470020AAE771
:1055500070B51546044649B1D4F88C0282691AB177
:1055600094F87402032830D0022070BDD4F86C1275
:1055700004F5A070032902D005291ED027E0D0E948
:1055800003218A420BD9531AC3600846834200D3D1
:1055900003469AB229462046FFF7EBFD17E0D4F800
:1055A0008C02016929B194F87402032801D12046C4
:1055B00088472046FFF71FFE09E000200146C4F897
:1055C0006C02204600F0E2F801E0204690470020FF
:1055D00070BD0020704710B5012180F87412D0F81A
:1055E0008C22017952689047002010BDD0F89802B3
:1055F000FCF7DEBC10B5017839BB15490222C1F8B1
:105600000404C0F898124FF0A040086004204860DD
:105610000020C1E90320C1E9062008624862C8628F
:1056200008630846FCF7B6FF08B1FBF7C8FA80210B
:105630000748FCF728FC402200210548FCF727FC1E
:10564000802201210248FCF722FC002010BD00004E
:10565000F41200200A0601F07F01D0F89802C1EB95
:10566000C10100EB810002D590F83E00704790F830
:10567000FE017047002070470020704710B51C469F
:105680001346D0F898022246FCF79BFCBDE8104078
:10569000FFF7C8BE10B5D0F89802FCF7C2FCBDE811
:1056A0001040FFF7BFBE70B50022044640231146EC
:1056B000FFF7E4FF40260125C4F85061334600227D
:1056C00080212046C4F84451FFF7D8FF6662A561E7
:1056D00084F874520020C4F86C026060C4F87C0244
:1056E000D4F8900228B1D4F88C02002142682046F8
:1056F0009047002070BD90F8751280F87412002059
:10570000704710B590F87412032904D1D0F88C12A8
:10571000C96901B18847002010BD0174002070479D
:1057200010B5D0F89802FDF707F8BDE81040FFF774
:1057300079BE70B5044600F52070054600F04AF8C1
:105740000120C4F86C02B4F88602C4F8700294F820
:10575000800210F01F010AD001290DD0022910D0BB
:1057600000F08001204600F011F8002070BD2946AD
:10577000204600F09EF8F8E72946204600F0CAF9D6
:10578000F3E72946204600F01DF9EEE710B5D0F802
:105790009802FCF76AFCBDE81040FFF743BE10B565
:1057A000D0F89802FCF7E3FFBDE81040FFF73ABEDF
:1057B00090F8741280F87512042180F87412002099
:1057C000704710B5D0F89802FCF789FCBDE810408E
:1057D000FFF728BE0A7802704A7842708A78CB7840
:1057E00002EB032242800A794B7902EB032282808A
:1057F0008A79C97902EB0121C180704702460020F5
:1058000011B1C2F88C1270470220704710B5D0F861
:105810008C2202241AB11268904700B90024204655
:1058200010BD000070B50E461E4D897804462970E3
:10583000012931D894F8740202280BD003280FD024
:1058400031462046FFF7A5FC29782046BDE8704088
:10585000FFF788BCD9B10320616084F8740209E0C5
:1058600071B16068884212D0C1B22046FFF77AFC5D
:10587000297861602046FFF7C9FF02280CD006E0B6
:10588000022084F8740220466160FFF76BFC20461A
:10589000BDE87040FFF7AFBC31462046BDE8704020
:1058A000FFF777BCFC00002010B5FFF778FF002061
:1058B00010BD2DE9F0410A78002612F0600208D0F0
:1058C000202A01D0402A70D1D0F88C2292689047CB
:1058D0006DE04B78002201250A2B66D2DFE803F049
:1058E000405D6557650805652C29FFF703FD5EE0FF
:1058F00004468888D8B9C888C8B94888802816D28C
:1059000000F07F0794F87402032810D084F87672B0
:1059100039462046FFF704FF2046FFF76CFC1FB115
:10592000022084F8740242E084F874523FE020467A
:105930003BE0FFF777FF3AE0CB88012B35D190F8B9
:105940007432012B04D0022B02D0032B2DD104E0A2
:105950008260012200F1080116E00122011D13E01E
:1059600090F87422012A03D0022A01D0032A1CD104
:10597000CA88022A19D1C560D0F87C1209B1032166
:10598000C160022200F10C01FFF728FC0FE04988FA
:1059900001290CD1C0F87C5211E090F87432012B2F
:1059A00008D0022B06D0032B04D0FFF7F2FB3046C1
:1059B000BDE8F08149880129F9D1C0F87C22FFF7C0
:1059C0001AFCF4E72DE9F0410A4604461078002756
:1059D000097910F060030AD0202B01D0402B50D160
:1059E000D4F88C0211468368204698478FE0C0F3B4
:1059F0004110012806D05078D0B301282AD00328BE
:105A00003FD107E0D4F88C02114683682046BDE8F8
:105A1000F041184794F87402022802D0032872D18A
:105A20000AE071B380296ED02046FFF7AFFE8021D7
:105A30002046FFF7ABFE6AE0508838B931B18029C3
:105A400004D0D08810B92046FFF7A0FE2046FFF70B
:105A5000D2FB5CE094F874020228E2D0032852D111
:105A6000508898BB4806F1D02046FFF7FCFCEDE7D4
:105A7000FFE794F874020026022803D0032842D1DD
:105A800012E040E009B180293DD1080601F07F0015
:105A900000EB800004EB800101D5143101E001F539
:105AA000A07102220E602AE0080601F00F0000EB50
:105AB000800004EB80000AD5806920B301F07F00EC
:105AC00000EB800004EB800514350BE01FE0D0F8FC
:105AD0004401C0B101F07F0000EB800004EB8005C1
